{
  "contractName": "Donnor",
  "abi": [
    {
      "anonymous": false,
      "inputs": [
        {
          "indexed": false,
          "internalType": "address",
          "name": "donnor_id",
          "type": "address"
        }
      ],
      "name": "DonorAdded",
      "type": "event"
    },
    {
      "inputs": [
        {
          "internalType": "string",
          "name": "_first_name",
          "type": "string"
        },
        {
          "internalType": "string",
          "name": "_last_name",
          "type": "string"
        },
        {
          "internalType": "string",
          "name": "_email",
          "type": "string"
        },
        {
          "internalType": "string",
          "name": "_blood_group",
          "type": "string"
        },
        {
          "internalType": "uint256",
          "name": "_age",
          "type": "uint256"
        }
      ],
      "name": "addDonor",
      "outputs": [],
      "stateMutability": "nonpayable",
      "type": "function"
    },
    {
      "inputs": [
        {
          "internalType": "address",
          "name": "_donnor_id",
          "type": "address"
        }
      ],
      "name": "getDonor",
      "outputs": [
        {
          "internalType": "string",
          "name": "",
          "type": "string"
        },
        {
          "internalType": "string",
          "name": "",
          "type": "string"
        },
        {
          "internalType": "string",
          "name": "",
          "type": "string"
        },
        {
          "internalType": "string",
          "name": "",
          "type": "string"
        },
        {
          "internalType": "uint256",
          "name": "",
          "type": "uint256"
        }
      ],
      "stateMutability": "view",
      "type": "function"
    }
  ],
  "bytecode": "0x608060405234801561001057600080fd5b50610e2c806100206000396000f3fe608060405234801561001057600080fd5b50600436106100365760003560e01c806396c590431461003b578063b276c1c41461006f575b600080fd5b6100556004803603810190610050919061075d565b61008b565b604051610066959493929190610833565b60405180910390f35b61008960048036038101906100849190610a03565b610421565b005b6060806060806000600160008773ffffffffffffffffffffffffffffffffffffffff1673ffffffffffffffffffffffffffffffffffffffff168152602001908152602001600020600001600160008873ffffffffffffffffffffffffffffffffffffffff1673ffffffffffffffffffffffffffffffffffffffff168152602001908152602001600020600101600160008973ffffffffffffffffffffffffffffffffffffffff1673ffffffffffffffffffffffffffffffffffffffff168152602001908152602001600020600201600160008a73ffffffffffffffffffffffffffffffffffffffff1673ffffffffffffffffffffffffffffffffffffffff168152602001908152602001600020600301600160008b73ffffffffffffffffffffffffffffffffffffffff1673ffffffffffffffffffffffffffffffffffffffff168152602001908152602001600020600401548480546101ea90610b1d565b80601f016020809104026020016040519081016040528092919081815260200182805461021690610b1d565b80156102635780601f1061023857610100808354040283529160200191610263565b820191906000526020600020905b81548152906001019060200180831161024657829003601f168201915b5050505050945083805461027690610b1d565b80601f01602080910402602001604051908101604052809291908181526020018280546102a290610b1d565b80156102ef5780601f106102c4576101008083540402835291602001916102ef565b820191906000526020600020905b8154815290600101906020018083116102d257829003601f168201915b5050505050935082805461030290610b1d565b80601f016020809104026020016040519081016040528092919081815260200182805461032e90610b1d565b801561037b5780601f106103505761010080835404028352916020019161037b565b820191906000526020600020905b81548152906001019060200180831161035e57829003601f168201915b5050505050925081805461038e90610b1d565b80601f01602080910402602001604051908101604052809291908181526020018280546103ba90610b1d565b80156104075780601f106103dc57610100808354040283529160200191610407565b820191906000526020600020905b8154815290600101906020018083116103ea57829003601f168201915b505050505091509450945094509450945091939590929450565b336000806101000a81548173ffffffffffffffffffffffffffffffffffffffff021916908373ffffffffffffffffffffffffffffffffffffffff16021790555084600160008060009054906101000a900473ffffffffffffffffffffffffffffffffffffffff1673ffffffffffffffffffffffffffffffffffffffff1673ffffffffffffffffffffffffffffffffffffffff16815260200190815260200160002060000190816104d19190610cfa565b5083600160008060009054906101000a900473ffffffffffffffffffffffffffffffffffffffff1673ffffffffffffffffffffffffffffffffffffffff1673ffffffffffffffffffffffffffffffffffffffff16815260200190815260200160002060010190816105429190610cfa565b5082600160008060009054906101000a900473ffffffffffffffffffffffffffffffffffffffff1673ffffffffffffffffffffffffffffffffffffffff1673ffffffffffffffffffffffffffffffffffffffff16815260200190815260200160002060020190816105b39190610cfa565b5081600160008060009054906101000a900473ffffffffffffffffffffffffffffffffffffffff1673ffffffffffffffffffffffffffffffffffffffff1673ffffffffffffffffffffffffffffffffffffffff16815260200190815260200160002060030190816106249190610cfa565b5080600160008060009054906101000a900473ffffffffffffffffffffffffffffffffffffffff1673ffffffffffffffffffffffffffffffffffffffff1673ffffffffffffffffffffffffffffffffffffffff168152602001908152602001600020600401819055507f650e3d334de4d5e09c7c65afd02455857fea2913f96d605a7460fe08217115c760008054906101000a900473ffffffffffffffffffffffffffffffffffffffff166040516106dc9190610ddb565b60405180910390a15050505050565b6000604051905090565b600080fd5b600080fd5b600073ffffffffffffffffffffffffffffffffffffffff82169050919050565b600061072a826106ff565b9050919050565b61073a8161071f565b811461074557600080fd5b50565b60008135905061075781610731565b92915050565b600060208284031215610773576107726106f5565b5b600061078184828501610748565b91505092915050565b600081519050919050565b600082825260208201905092915050565b60005b838110156107c45780820151818401526020810190506107a9565b60008484015250505050565b6000601f19601f8301169050919050565b60006107ec8261078a565b6107f68185610795565b93506108068185602086016107a6565b61080f816107d0565b840191505092915050565b6000819050919050565b61082d8161081a565b82525050565b600060a082019050818103600083015261084d81886107e1565b9050818103602083015261086181876107e1565b9050818103604083015261087581866107e1565b9050818103606083015261088981856107e1565b90506108986080830184610824565b9695505050505050565b600080fd5b600080fd5b7f4e487b7100000000000000000000000000000000000000000000000000000000600052604160045260246000fd5b6108e4826107d0565b810181811067ffffffffffffffff82111715610903576109026108ac565b5b80604052505050565b60006109166106eb565b905061092282826108db565b919050565b600067ffffffffffffffff821115610942576109416108ac565b5b61094b826107d0565b9050602081019050919050565b82818337600083830152505050565b600061097a61097584610927565b61090c565b905082815260208101848484011115610996576109956108a7565b5b6109a1848285610958565b509392505050565b600082601f8301126109be576109bd6108a2565b5b81356109ce848260208601610967565b91505092915050565b6109e08161081a565b81146109eb57600080fd5b50565b6000813590506109fd816109d7565b92915050565b600080600080600060a08688031215610a1f57610a1e6106f5565b5b600086013567ffffffffffffffff811115610a3d57610a3c6106fa565b5b610a49888289016109a9565b955050602086013567ffffffffffffffff811115610a6a57610a696106fa565b5b610a76888289016109a9565b945050604086013567ffffffffffffffff811115610a9757610a966106fa565b5b610aa3888289016109a9565b935050606086013567ffffffffffffffff811115610ac457610ac36106fa565b5b610ad0888289016109a9565b9250506080610ae1888289016109ee565b9150509295509295909350565b7f4e487b7100000000000000000000000000000000000000000000000000000000600052602260045260246000fd5b60006002820490506001821680610b3557607f821691505b602082108103610b4857610b47610aee565b5b50919050565b60008190508160005260206000209050919050565b60006020601f8301049050919050565b600082821b905092915050565b600060088302610bb07fffffffffffffffffffffffffffffffffffffffffffffffffffffffffffffffff82610b73565b610bba8683610b73565b95508019841693508086168417925050509392505050565b6000819050919050565b6000610bf7610bf2610bed8461081a565b610bd2565b61081a565b9050919050565b6000819050919050565b610c1183610bdc565b610c25610c1d82610bfe565b848454610b80565b825550505050565b600090565b610c3a610c2d565b610c45818484610c08565b505050565b5b81811015610c6957610c5e600082610c32565b600181019050610c4b565b5050565b601f821115610cae57610c7f81610b4e565b610c8884610b63565b81016020851015610c97578190505b610cab610ca385610b63565b830182610c4a565b50505b505050565b600082821c905092915050565b6000610cd160001984600802610cb3565b1980831691505092915050565b6000610cea8383610cc0565b9150826002028217905092915050565b610d038261078a565b67ffffffffffffffff811115610d1c57610d1b6108ac565b5b610d268254610b1d565b610d31828285610c6d565b600060209050601f831160018114610d645760008415610d52578287015190505b610d5c8582610cde565b865550610dc4565b601f198416610d7286610b4e565b60005b82811015610d9a57848901518255600182019150602085019450602081019050610d75565b86831015610db75784890151610db3601f891682610cc0565b8355505b6001600288020188555050505b505050505050565b610dd58161071f565b82525050565b6000602082019050610df06000830184610dcc565b9291505056fea264697066735822122005d914e4e29704d9c29d8f782fca859f909dd5cdecc82b40ad482fdef2f612de64736f6c63430008110033",
  "immutableReferences": {},
  "source": "//SPDX-License-Identifier: ISC\r\npragma solidity ^0.8.17;\r\ncontract Donnor{\r\n    //set donnor id as the wallet address\r\n    address donnor_id;\r\n    struct donor{\r\n        string first_name;\r\n        string last_name;\r\n        string email;\r\n        string blood_group;\r\n        uint age;\r\n}\r\n    //mapping to store the donnor details\r\n    mapping(address => donor) donnor_details;\r\n    //event to be emitted when donnor details are added\r\n    event DonorAdded(address donnor_id);\r\n    //function to add donnor details\r\n    function addDonor(string memory _first_name, string memory _last_name, string memory _email, string memory _blood_group, uint _age) public{\r\n        donnor_id = msg.sender;\r\n        donnor_details[donnor_id].first_name = _first_name;\r\n        donnor_details[donnor_id].last_name = _last_name;\r\n        donnor_details[donnor_id].email = _email;\r\n        donnor_details[donnor_id].blood_group = _blood_group;\r\n        donnor_details[donnor_id].age = _age;\r\n        emit DonorAdded(donnor_id);\r\n    }\r\n    //function to get donnor details using donnor id\r\n    function getDonor(address _donnor_id) public view returns(string memory, string memory, string memory, string memory, uint){\r\n        return (donnor_details[_donnor_id].first_name, donnor_details[_donnor_id].last_name, donnor_details[_donnor_id].email, donnor_details[_donnor_id].blood_group, donnor_details[_donnor_id].age);\r\n    }\r\n}\r\n\r\n",
  "sourcePath": "C:\\Users\\rehan\\Desktop\\donor-s_choice\\contracts\\contracts\\donor.sol",
  "compiler": {
    "name": "solc",
    "version": "0.8.17+commit.8df45f5f.Emscripten.clang"
  },
  "schemaVersion": "3.4.11",
  "updatedAt": "2022-12-03T06:20:56.158Z",
  "devdoc": {
    "kind": "dev",
    "methods": {},
    "version": 1
  },
  "userdoc": {
    "kind": "user",
    "methods": {},
    "version": 1
  }
}